{
  "_format": "hh-sol-artifact-1",
  "contractName": "Voting",
  "sourceName": "contracts/votingContract.sol",
  "abi": [
    {
      "inputs": [
        {
          "internalType": "string[]",
          "name": "candidateNames",
          "type": "string[]"
        },
        {
          "internalType": "address",
          "name": "_nftContract",
          "type": "address"
        }
      ],
      "stateMutability": "nonpayable",
      "type": "constructor"
    },
    {
      "inputs": [
        {
          "internalType": "uint256",
          "name": "",
          "type": "uint256"
        }
      ],
      "name": "CheckNftVote",
      "outputs": [
        {
          "internalType": "bool",
          "name": "",
          "type": "bool"
        }
      ],
      "stateMutability": "view",
      "type": "function"
    },
    {
      "inputs": [
        {
          "internalType": "uint256",
          "name": "",
          "type": "uint256"
        }
      ],
      "name": "NftId",
      "outputs": [
        {
          "internalType": "string",
          "name": "",
          "type": "string"
        }
      ],
      "stateMutability": "view",
      "type": "function"
    },
    {
      "inputs": [
        {
          "internalType": "uint256",
          "name": "",
          "type": "uint256"
        }
      ],
      "name": "candidates",
      "outputs": [
        {
          "internalType": "string",
          "name": "name",
          "type": "string"
        },
        {
          "internalType": "uint256",
          "name": "voteCount",
          "type": "uint256"
        }
      ],
      "stateMutability": "view",
      "type": "function"
    },
    {
      "inputs": [
        {
          "internalType": "uint256",
          "name": "id",
          "type": "uint256"
        }
      ],
      "name": "checkEligibility",
      "outputs": [
        {
          "internalType": "bool",
          "name": "",
          "type": "bool"
        }
      ],
      "stateMutability": "view",
      "type": "function"
    },
    {
      "inputs": [],
      "name": "endVoting",
      "outputs": [],
      "stateMutability": "nonpayable",
      "type": "function"
    },
    {
      "inputs": [
        {
          "internalType": "uint256",
          "name": "index",
          "type": "uint256"
        }
      ],
      "name": "getCandidate",
      "outputs": [
        {
          "internalType": "string",
          "name": "",
          "type": "string"
        },
        {
          "internalType": "uint256",
          "name": "",
          "type": "uint256"
        }
      ],
      "stateMutability": "view",
      "type": "function"
    },
    {
      "inputs": [],
      "name": "getCandidateCount",
      "outputs": [
        {
          "internalType": "uint256",
          "name": "",
          "type": "uint256"
        }
      ],
      "stateMutability": "view",
      "type": "function"
    },
    {
      "inputs": [],
      "name": "owner",
      "outputs": [
        {
          "internalType": "address",
          "name": "",
          "type": "address"
        }
      ],
      "stateMutability": "view",
      "type": "function"
    },
    {
      "inputs": [
        {
          "internalType": "uint256",
          "name": "candidateIndex",
          "type": "uint256"
        },
        {
          "internalType": "uint256",
          "name": "candidateNftIndex",
          "type": "uint256"
        }
      ],
      "name": "vote",
      "outputs": [],
      "stateMutability": "nonpayable",
      "type": "function"
    },
    {
      "inputs": [
        {
          "internalType": "address",
          "name": "",
          "type": "address"
        }
      ],
      "name": "voters",
      "outputs": [
        {
          "internalType": "bool",
          "name": "",
          "type": "bool"
        }
      ],
      "stateMutability": "view",
      "type": "function"
    },
    {
      "inputs": [],
      "name": "votingEnded",
      "outputs": [
        {
          "internalType": "bool",
          "name": "",
          "type": "bool"
        }
      ],
      "stateMutability": "view",
      "type": "function"
    }
  ],
  "bytecode": "0x60806040523480156200001157600080fd5b5060405162001a8b38038062001a8b83398181016040528101906200003791906200045a565b336000806101000a81548173ffffffffffffffffffffffffffffffffffffffff021916908373ffffffffffffffffffffffffffffffffffffffff16021790555060005b82518110156200011c5760046040518060400160405280858481518110620000a757620000a6620004c0565b5b60200260200101518152602001600081525090806001815401808255809150506001900390600052602060002090600202016000909190919091506000820151816000019081620000f991906200073a565b506020820151816001015550508080620001139062000850565b9150506200007a565b5080600560016101000a81548173ffffffffffffffffffffffffffffffffffffffff021916908373ffffffffffffffffffffffffffffffffffffffff16021790555050506200089d565b6000604051905090565b600080fd5b600080fd5b600080fd5b6000601f19601f8301169050919050565b7f4e487b7100000000000000000000000000000000000000000000000000000000600052604160045260246000fd5b620001ca826200017f565b810181811067ffffffffffffffff82111715620001ec57620001eb62000190565b5b80604052505050565b60006200020162000166565b90506200020f8282620001bf565b919050565b600067ffffffffffffffff82111562000232576200023162000190565b5b602082029050602081019050919050565b600080fd5b600080fd5b600067ffffffffffffffff8211156200026b576200026a62000190565b5b62000276826200017f565b9050602081019050919050565b60005b83811015620002a357808201518184015260208101905062000286565b60008484015250505050565b6000620002c6620002c0846200024d565b620001f5565b905082815260208101848484011115620002e557620002e462000248565b5b620002f284828562000283565b509392505050565b600082601f8301126200031257620003116200017a565b5b815162000324848260208601620002af565b91505092915050565b6000620003446200033e8462000214565b620001f5565b905080838252602082019050602084028301858111156200036a576200036962000243565b5b835b81811015620003b857805167ffffffffffffffff8111156200039357620003926200017a565b5b808601620003a28982620002fa565b855260208501945050506020810190506200036c565b5050509392505050565b600082601f830112620003da57620003d96200017a565b5b8151620003ec8482602086016200032d565b91505092915050565b600073ffffffffffffffffffffffffffffffffffffffff82169050919050565b60006200042282620003f5565b9050919050565b620004348162000415565b81146200044057600080fd5b50565b600081519050620004548162000429565b92915050565b6000806040838503121562000474576200047362000170565b5b600083015167ffffffffffffffff81111562000495576200049462000175565b5b620004a385828601620003c2565b9250506020620004b68582860162000443565b9150509250929050565b7f4e487b7100000000000000000000000000000000000000000000000000000000600052603260045260246000fd5b600081519050919050565b7f4e487b7100000000000000000000000000000000000000000000000000000000600052602260045260246000fd5b600060028204905060018216806200054257607f821691505b602082108103620005585762000557620004fa565b5b50919050565b60008190508160005260206000209050919050565b60006020601f8301049050919050565b600082821b905092915050565b600060088302620005c27fffffffffffffffffffffffffffffffffffffffffffffffffffffffffffffffff8262000583565b620005ce868362000583565b95508019841693508086168417925050509392505050565b6000819050919050565b6000819050919050565b60006200061b620006156200060f84620005e6565b620005f0565b620005e6565b9050919050565b6000819050919050565b6200063783620005fa565b6200064f620006468262000622565b84845462000590565b825550505050565b600090565b6200066662000657565b620006738184846200062c565b505050565b5b818110156200069b576200068f6000826200065c565b60018101905062000679565b5050565b601f821115620006ea57620006b4816200055e565b620006bf8462000573565b81016020851015620006cf578190505b620006e7620006de8562000573565b83018262000678565b50505b505050565b600082821c905092915050565b60006200070f60001984600802620006ef565b1980831691505092915050565b60006200072a8383620006fc565b9150826002028217905092915050565b6200074582620004ef565b67ffffffffffffffff81111562000761576200076062000190565b5b6200076d825462000529565b6200077a8282856200069f565b600060209050601f831160018114620007b257600084156200079d578287015190505b620007a985826200071c565b86555062000819565b601f198416620007c2866200055e565b60005b82811015620007ec57848901518255600182019150602085019450602081019050620007c5565b868310156200080c578489015162000808601f891682620006fc565b8355505b6001600288020188555050505b505050505050565b7f4e487b7100000000000000000000000000000000000000000000000000000000600052601160045260246000fd5b60006200085d82620005e6565b91507fffffffffffffffffffffffffffffffffffffffffffffffffffffffffffffffff820362000892576200089162000821565b5b600182019050919050565b6111de80620008ad6000396000f3fe608060405234801561001057600080fd5b50600436106100a95760003560e01c80638da5cb5b116100715780638da5cb5b1461018e5780639d5a0529146101ac578063a3ec138d146101ca578063b384abef146101fa578063c3403ddf14610216578063c73cfcb414610220576100a9565b80632b90d310146100ae57806330a56347146100de5780633477ee2e146100fc57806335b8e8201461012d5780637b39fed61461015e575b600080fd5b6100c860048036038101906100c39190610b20565b610250565b6040516100d59190610b68565b60405180910390f35b6100e6610270565b6040516100f39190610b92565b60405180910390f35b61011660048036038101906101119190610b20565b61027d565b604051610124929190610c3d565b60405180910390f35b61014760048036038101906101429190610b20565b610339565b604051610155929190610c3d565b60405180910390f35b61017860048036038101906101739190610b20565b610464565b6040516101859190610b68565b60405180910390f35b610196610547565b6040516101a39190610cae565b60405180910390f35b6101b461056b565b6040516101c19190610b68565b60405180910390f35b6101e460048036038101906101df9190610cf5565b61057e565b6040516101f19190610b68565b60405180910390f35b610214600480360381019061020f9190610d22565b61059e565b005b61021e61099a565b005b61023a60048036038101906102359190610b20565b610a45565b6040516102479190610d62565b60405180910390f35b60026020528060005260406000206000915054906101000a900460ff1681565b6000600480549050905090565b6004818154811061028d57600080fd5b90600052602060002090600202016000915090508060000180546102b090610db3565b80601f01602080910402602001604051908101604052809291908181526020018280546102dc90610db3565b80156103295780601f106102fe57610100808354040283529160200191610329565b820191906000526020600020905b81548152906001019060200180831161030c57829003601f168201915b5050505050908060010154905082565b606060006004805490508310610384576040517f08c379a000000000000000000000000000000000000000000000000000000000815260040161037b90610e30565b60405180910390fd5b6004838154811061039857610397610e50565b5b9060005260206000209060020201600001600484815481106103bd576103bc610e50565b5b9060005260206000209060020201600101548180546103db90610db3565b80601f016020809104026020016040519081016040528092919081815260200182805461040790610db3565b80156104545780601f1061042957610100808354040283529160200191610454565b820191906000526020600020905b81548152906001019060200180831161043757829003601f168201915b5050505050915091509150915091565b60003373ffffffffffffffffffffffffffffffffffffffff16600560019054906101000a900473ffffffffffffffffffffffffffffffffffffffff1673ffffffffffffffffffffffffffffffffffffffff16636352211e846040518263ffffffff1660e01b81526004016104d89190610b92565b602060405180830381865afa1580156104f5573d6000803e3d6000fd5b505050506040513d601f19601f820116820180604052508101906105199190610e94565b73ffffffffffffffffffffffffffffffffffffffff160361053d5760019050610542565b600090505b919050565b60008054906101000a900473ffffffffffffffffffffffffffffffffffffffff1681565b600560009054906101000a900460ff1681565b60016020528060005260406000206000915054906101000a900460ff1681565b600160003373ffffffffffffffffffffffffffffffffffffffff1673ffffffffffffffffffffffffffffffffffffffff16815260200190815260200160002060009054906101000a900460ff161561062b576040517f08c379a000000000000000000000000000000000000000000000000000000000815260040161062290610f0d565b60405180910390fd5b600560009054906101000a900460ff161561067b576040517f08c379a000000000000000000000000000000000000000000000000000000000815260040161067290610f79565b60405180910390fd5b6000600560019054906101000a900473ffffffffffffffffffffffffffffffffffffffff1673ffffffffffffffffffffffffffffffffffffffff166370a08231336040518263ffffffff1660e01b81526004016106d89190610cae565b602060405180830381865afa1580156106f5573d6000803e3d6000fd5b505050506040513d601f19601f820116820180604052508101906107199190610fae565b11610759576040517f08c379a000000000000000000000000000000000000000000000000000000000815260040161075090611027565b60405180910390fd5b803373ffffffffffffffffffffffffffffffffffffffff16600560019054906101000a900473ffffffffffffffffffffffffffffffffffffffff1673ffffffffffffffffffffffffffffffffffffffff16636352211e836040518263ffffffff1660e01b81526004016107cc9190610b92565b602060405180830381865afa1580156107e9573d6000803e3d6000fd5b505050506040513d601f19601f8201168201806040525081019061080d9190610e94565b73ffffffffffffffffffffffffffffffffffffffff161461082d57600080fd5b6004805490508310610874576040517f08c379a000000000000000000000000000000000000000000000000000000000815260040161086b90610e30565b60405180910390fd5b6002600083815260200190815260200160002060009054906101000a900460ff16156108d5576040517f08c379a00000000000000000000000000000000000000000000000000000000081526004016108cc90611093565b60405180910390fd5b60018060003373ffffffffffffffffffffffffffffffffffffffff1673ffffffffffffffffffffffffffffffffffffffff16815260200190815260200160002060006101000a81548160ff02191690831515021790555060016002600084815260200190815260200160002060006101000a81548160ff02191690831515021790555060016004848154811061096e5761096d610e50565b5b9060005260206000209060020201600101600082825461098e91906110e2565b92505081905550505050565b60008054906101000a900473ffffffffffffffffffffffffffffffffffffffff1673ffffffffffffffffffffffffffffffffffffffff163373ffffffffffffffffffffffffffffffffffffffff1614610a28576040517f08c379a0000000000000000000000000000000000000000000000000000000008152600401610a1f90611188565b60405180910390fd5b6001600560006101000a81548160ff021916908315150217905550565b60036020528060005260406000206000915090508054610a6490610db3565b80601f0160208091040260200160405190810160405280929190818152602001828054610a9090610db3565b8015610add5780601f10610ab257610100808354040283529160200191610add565b820191906000526020600020905b815481529060010190602001808311610ac057829003601f168201915b505050505081565b600080fd5b6000819050919050565b610afd81610aea565b8114610b0857600080fd5b50565b600081359050610b1a81610af4565b92915050565b600060208284031215610b3657610b35610ae5565b5b6000610b4484828501610b0b565b91505092915050565b60008115159050919050565b610b6281610b4d565b82525050565b6000602082019050610b7d6000830184610b59565b92915050565b610b8c81610aea565b82525050565b6000602082019050610ba76000830184610b83565b92915050565b600081519050919050565b600082825260208201905092915050565b60005b83811015610be7578082015181840152602081019050610bcc565b60008484015250505050565b6000601f19601f8301169050919050565b6000610c0f82610bad565b610c198185610bb8565b9350610c29818560208601610bc9565b610c3281610bf3565b840191505092915050565b60006040820190508181036000830152610c578185610c04565b9050610c666020830184610b83565b9392505050565b600073ffffffffffffffffffffffffffffffffffffffff82169050919050565b6000610c9882610c6d565b9050919050565b610ca881610c8d565b82525050565b6000602082019050610cc36000830184610c9f565b92915050565b610cd281610c8d565b8114610cdd57600080fd5b50565b600081359050610cef81610cc9565b92915050565b600060208284031215610d0b57610d0a610ae5565b5b6000610d1984828501610ce0565b91505092915050565b60008060408385031215610d3957610d38610ae5565b5b6000610d4785828601610b0b565b9250506020610d5885828601610b0b565b9150509250929050565b60006020820190508181036000830152610d7c8184610c04565b905092915050565b7f4e487b7100000000000000000000000000000000000000000000000000000000600052602260045260246000fd5b60006002820490506001821680610dcb57607f821691505b602082108103610dde57610ddd610d84565b5b50919050565b7f496e76616c69642063616e64696461746520696e6465782e0000000000000000600082015250565b6000610e1a601883610bb8565b9150610e2582610de4565b602082019050919050565b60006020820190508181036000830152610e4981610e0d565b9050919050565b7f4e487b7100000000000000000000000000000000000000000000000000000000600052603260045260246000fd5b600081519050610e8e81610cc9565b92915050565b600060208284031215610eaa57610ea9610ae5565b5b6000610eb884828501610e7f565b91505092915050565b7f596f75206861766520616c726561647920766f7465642e000000000000000000600082015250565b6000610ef7601783610bb8565b9150610f0282610ec1565b602082019050919050565b60006020820190508181036000830152610f2681610eea565b9050919050565b7f566f74696e672068617320656e6465642e000000000000000000000000000000600082015250565b6000610f63601183610bb8565b9150610f6e82610f2d565b602082019050919050565b60006020820190508181036000830152610f9281610f56565b9050919050565b600081519050610fa881610af4565b92915050565b600060208284031215610fc457610fc3610ae5565b5b6000610fd284828501610f99565b91505092915050565b7f596f7520617265206e6f7420656c696769626c65202100000000000000000000600082015250565b6000611011601683610bb8565b915061101c82610fdb565b602082019050919050565b6000602082019050818103600083015261104081611004565b9050919050565b7f54686973204e4654206861766520616c726561647920766f7465640000000000600082015250565b600061107d601b83610bb8565b915061108882611047565b602082019050919050565b600060208201905081810360008301526110ac81611070565b9050919050565b7f4e487b7100000000000000000000000000000000000000000000000000000000600052601160045260246000fd5b60006110ed82610aea565b91506110f883610aea565b92508282019050808211156111105761110f6110b3565b5b92915050565b7f4f6e6c79206f776e65722063616e2063616c6c20746869732066756e6374696f60008201527f6e2e000000000000000000000000000000000000000000000000000000000000602082015250565b6000611172602283610bb8565b915061117d82611116565b604082019050919050565b600060208201905081810360008301526111a181611165565b905091905056fea2646970667358221220db898d7e2ff9dc912262cd05f47cf5b051dc33664b774d37e546d2a19f571d1964736f6c63430008140033",
  "linkReferences": {},
  "deployedLinkReferences": {}
}